:020000040800F2
:1000000030090020DD020008C1020008C302000818
:10001000C7020008CB020008CF0200080000000061
:10002000000000000000000000000000D3020008F3
:10003000D502000800000000D7020008D90200081D
:10004000F7020008F7020008F7020008F7020008AC
:10005000F7020008F7020008EB0D0008F70200089D
:10006000F7020008F7020008FD0D0008F70200087B
:10007000F7020008F7020008F7020008F70200087C
:10008000F7020008F7020008F7020008F70200086C
:10009000F7020008F7020008F7020008F70200085C
:1000A000F7020008F7020008F7020008F70200084C
:1000B000F7020008F70200080F210008F702000805
:1000C000F7020008F7020008F7020008F70200082C
:1000D000F7020008D5050008AB110008F702000878
:1000E000F7020008F7020008F7020008F70200080C
:1000F000F7020008F7020008F7020008F7020008FC
:10010000F7020008F7020008577D0008F702000810
:10011000F7020008111E0008F7020008F7020008A5
:10012000F7020008F7020008F7020008F7020008CB
:10013000F7020008F7020008F7020008F7020008BB
:10014000F7020008F7020008F7020008F7020008AB
:10015000F7020008F7020008F702000897280008D5
:10016000F7020008F7020008F7020008F70200088B
:10017000F7020008F7020008F7020008F70200087B
:10018000F7020008F7020008DFF80CD008F0D0FAF8
:10019000004800479D0100083009002008B500F024
:1001A000CAF94FF4E13000F0B3FF4FF4E13001F051
:1001B000CBFD05F0B6FC05F0C7FF01F0A0FF012262
:1001C0002D492E4801F061FD41F2941203211007E0
:1001D00007F00FFE41F294120421080707F009FE10
:1001E00006F049FB00F08BFA05E025A008F0D0FCF2
:1001F000C82005F0F3FC00F068FB0028F5D125A02D
:1002000008F0C6FC00F096FD40F2DC5005F0E6FC7C
:1002100024494FF4E13002F0DDFA2349234802F08B
:1002200079F8214802F080F824E007F01FFD002053
:1002300001F026F91E48007801281BD14FF6FF7007
:100240000090012269460D4801F030FD4FF4005145
:10025000184802F0E3FC642005F0C0FC4FF40051A4
:10026000144802F0D9FC14480068C0431349C1F88F
:10027000880200BFD9E700004E03002004C0000838
:100280004E524632344C3031204572726F720D0A34
:10029000000000004E524632344C3031204F4B0D9E
:1002A0000A00000058040020BC0400200014014093
:1002B00069000020001802408802424200004242C9
:1002C000704700BFFEE700BFFEE700BFFEE700BFCC
:1002D000FEE7704770477047704700000648804748
:1002E00006480047FEE7FEE7FEE7FEE7FEE7FEE71B
:1002F000FEE7FEE7FEE7FEE7DD03000889010008F0
:100300000CB50020019000907648006840F48030E1
:100310007449086000BF7348006800F40030009022
:100320000198401C0190009818B90198B0F5A04FB1
:10033000F1D16C48006800F4003010B10120009049
:1003400001E0002000900098012846D16548403027
:10035000006840F08050634940310860624800689E
:1003600040F44040604908605E48083000685D49DC
:10037000083108600846006840F4004008600846FC
:10038000006840F4A05008605848091F0860081F22
:10039000006840F08070091F086000BF5148006885
:1003A00000F000700028F9D040F205705049086054
:1003B0004C480830006820F003004A4908310860C2
:1003C0000846006840F00200086000BF4548083059
:1003D000006800F00C000828F8D10CBD10B54548A5
:1003E000006840F47000434908603E48006840F0EF
:1003F00001003C49086000203A490831086039484A
:1004000000683D490840374908603C48091D0860BC
:10041000081F006820F48020091F0860002031496F
:100420000C310860FFF76CFF4FF0006031498039F4
:10043000086010BD70B500200022022300240221B4
:10044000284D08352D6805F00C0020B1042806D091
:10045000082834D107E02A4D2A4E356033E02A4D72
:10046000284E35602FE01F4D2D1D2D68C5F380549B
:100470001C4D2D1D2D6805F03F0154B1224DB5FBDB
:10048000F1F5184E361D3668C6F3881605FB06F2E0
:1004900009E01B4DB5FBF1F5124E361D3668C6F36B
:1004A000881605FB06F20F4D2D1D2D68C5F301457D
:1004B0006D1C6B00B2FBF3F5124E356003E0104D7E
:1004C000104E356000BF00BF064D08352D68C5F3DE
:1004D00003150E4E705D0B4D2D68C540094E3560FD
:1004E00070BD000000380240007000400854400712
:1004F000003C024088ED00E0FFFFF6FE10300024D3
:100500000024F4000000002000127A000400002003
:1005100008B54FF4A06002F00DFA25208DF8000018
:1005200001208DF801008DF802008DF80300684667
:1005300002F005FA08BD00B587B00121084602F0B7
:100540008DFD0121102002F0E3FD00208DF81A003E
:1005500001208DF81B0002208DF819008DF818007D
:100560000002059005A94E4802F0DAFA02208DF843
:1005700018004002059005A9494802F0D1FA072267
:100580000A21474802F057FB07220921444802F09C
:1005900052FB4FF4E13001900020ADF80800ADF8B7
:1005A0000A00ADF80C00ADF810000C20ADF80E00FC
:1005B00001A93C4804F0E1FFFFF7AAFF012240F245
:1005C0002551384805F017F90121364805F05DF846
:1005D00007B000BD10B540F22551324805F046F98C
:1005E00010BD70B504460D462946204605F078F842
:1005F00000BF8021204605F023F90028F9D070BD06
:1006000070B506460C46002500BF615D3046FFF719
:10061000E8FF6D1C605D0028F7D100BF4021304627
:1006200005F00EF90028F9D070BD2DE9F04105461E
:100630000C46260AE7B23146284605F051F800BFBD
:100640008021284605F0FCF80028F9D039462846D4
:1006500005F046F800BF8021284605F0F1F8002893
:10066000F9D0BDE8F08170B504460D46E1B20D4801
:1006700005F036F800BF80210A4805F0E1F80028AF
:10068000F9D0204670BD10B5044600BF20210548B2
:1006900005F0D6F80028F9D0024805F025F810BD7D
:1006A000000002400010014000B585B00021FB4869
:1006B00003F066FF0020ADF800004FF48270ADF843
:1006C00002000020ADF80400ADF80600ADF8080007
:1006D0004FF40070ADF80A003820ADF80C0000208F
:1006E000ADF80E000720ADF810006946EB4803F0A6
:1006F0004DFE0121E94803F043FF05B000BD1CB5E4
:100700000121422002F0AAFC0121880302F000FD31
:100710004FF48040009001208DF8040000208DF8F7
:10072000060003208DF8050001208DF807006946BA
:10073000DB4802F0F5F94FF41070009001208DF8BD
:10074000040000208DF8060003208DF8050001202C
:100750008DF807006946D34802F0E2F94FF4807043
:10076000009000208DF8040001208DF807006946F4
:10077000CC4802F0D5F91120009000208DF804003B
:100780008DF807006946C84802F0CAF9012108201F
:1007900002F064FC0120009000208DF804008DF828
:1007A00007006946C14802F0BBF94FF48041BC48DC
:1007B00002F032FA00F0DBFDFFF776FF0020BC49C3
:1007C00008600120BB49C1F8A4021CBD1CB508216A
:1007D000062003F0E0FF4FF48070009000208DF8B9
:1007E00004000C208DF8050001208DF806006846F5
:1007F00003F09CF91CBD1CB50021084603F0CBFF9B
:100800000120009000208DF8040008208DF80500DC
:1008100001208DF80600684603F088F9012003F0F6
:10082000F6F91CBD1CB50421002003F0B4FF102014
:10083000009000208DF804000C208DF805000120A8
:100840008DF80600684603F071F9102003F0DFF917
:100850001CBD2DE9F04107460D461646002094497F
:100860000C310860384600F069FD8046002405E040
:10087000FF2000F063FD2855601CC4B2B442F7DBD2
:1008800001208B490C3108604046BDE8F0812DE91C
:10089000F04107460C461546002085490C3108609A
:1008A000384600F04BFD8046002605E014F8010BA9
:1008B00000F044FD701CC6B2AE42F7DB01207C495B
:1008C0000C3108604046BDE8F0811CB57AA103C92F
:1008D000CDE90001102000F0A7FD05226946302077
:1008E000FFF7D5FF052269461020FFF7B2FF00246D
:1008F00006E01DF80400A52800D003E0601CC4B287
:10090000052CF6DB00BF052C01D001201CBD00200A
:10091000FCE770B505460C46002065490C310860BF
:10092000284600F00BFD0646204600F007FD01209A
:100930006049C1F8A402304670BD70B5044600207D
:100940005B490C310860204600F0F8FCFF2000F005
:10095000F5FC054601205749C1F8A402284670BDA0
:1009600070B50546102000F05FFD0020504908607A
:1009700020222946A020FFF78AFF01204D49C1F817
:10098000980200BF4E4800680028FBD10720FFF7FF
:10099000D4FF044604F0100048B121462720FFF799
:1009A000B8FFFF21E120FFF7B4FF102070BD04F075
:1009B000200048B121462720FFF7ABFFFF21E120AF
:1009C000FFF7A7FF2020F1E7FF20EFE710B504466F
:1009D000A72C1CD006DCA12C09D0A32C0BD0A52C55
:1009E0003BD10EE0A92C20D0B02C36D12BE000203A
:1009F0003449087032E040F6B831480005F053FC45
:100A00002CE041F27071481005F04DFC26E040F6F4
:100A10008C2141F69C0005F051FC4021234802F056
:100A2000FDF801202749087018E041F62C2140F616
:100A3000FC0005F043FC40211C4802F0EDF80120C9
:100A4000204908700AE020480068C0431F49C1F8E7
:100A50008802A0201E49887100E000BF00BF10BDC1
:100A600070B52DED048B88B004460D4600261C2180
:100A700001A807F0C8FA6078072870D1A078062886
:100A8000FBD1032628E0A15D301D205C814221D0EE
:100A9000002008B0BDEC048B70BD000000300140A8
:100AA000000402400018024000000240000C024016
:100AB0009802434200004342A5A5A5A5A500000059
:100AC000100240426E010020880242420000424271
:100AD00014000020701CC6B2072ED4DB20682860EA
:100AE0006068686020892881A07AA872E07801286F
:100AF00004D0022834D003287DD134E00020FE4900
:100B00000870287964380190687966380290A07975
:100B1000A02802D0A079FFF759FF0199002901DB35
:100B20000A4600E04A420A2A0ADC0298002801DB51
:100B3000024600E042420A2A02DC05F0E8FE0DE02F
:100B40009DED011AB8EEC11AF0EE410A9DED021AB0
:100B5000B8EEC11AB0EE410A05F098FB6DE072E004
:100B600005F0D5FE69E005F0D2FE0120E2490870EB
:100B7000287907F0FDFB41EC190B9FEDE00B53ECDE
:100B8000102B07F086FB41EC180B07F053FCDD49F6
:100B90000860687907F0ECFB41EC190B9FEDDA0B6C
:100BA00053EC102B07F075FB41EC180B07F042FCDF
:100BB000D7490860A87907F0DBFB41EC190B9FEDE2
:100BC000CF0B53EC102B07F064FB41EC180B07F034
:100BD00031FCD0490860D04890ED020ACF48D0EDF2
:100BE000000A30EEC00A10EE101A084607F0DEFBCD
:100BF00041EC190B00E01FE0B0EE490AF0EE690A83
:100C000007F0F2FFB0EE408AF0EE608A9FEDC40B71
:100C100053EC102B51EC180B07F0F4FB04D205F049
:100C200090FEC14880ED000ABF48D0ED000A9FED5C
:100C3000BF0A05F02BFB00E000BF00BF012008B099
:100C4000BDEC048B70BD0020F9E770B504461020A0
:100C500000F0EAFB0720FFF770FE054605F04000B4
:100C6000A8B10120B249086029462720FFF751FEAC
:100C7000202221466120FFF7ECFDFF21E220FFF753
:100C800048FEAC49AC48FFF7EBFE002070BD0120E8
:100C9000FCE710B50020A94908600522A8492A20D0
:100CA000FFF7F5FD01212120FFF733FE012122206E
:100CB000FFF72FFE00212520FFF72BFE20213120FA
:100CC000FFF727FE0F212620FFF723FE0F2120200C
:100CD000FFF71FFE01209B49C1F8980210BD10B517
:100CE000002096490860052297493020FFF7CFFD84
:100CF000052293492A20FFF7CAFD01212120FFF791
:100D000008FE01212220FFF704FE1A212420FFF70C
:100D100000FE00212520FFF7FCFD0F212620FFF714
:100D2000F8FD0E212020FFF7F4FD01208549C1F8D0
:100D3000980210BD10B500208049086020213120A4
:100D4000FFF7E7FDFF21E220FFF7E3FD05227E49E3
:100D50003020FFF79CFD052279492A20FFF797FDF7
:100D600001212120FFF7D5FD01212220FFF7D1FD30
:100D70001A212420FFF7CDFD00212520FFF7C9FD12
:100D80000F212620FFF7C5FD0F212020FFF7C1FD11
:100D900001206C49C1F8980210BD10B5044600202E
:100DA000664908600E212020FFF7B3FD0120654948
:100DB000C1F898020F2004F0C9FE2046FFF7D0FDCD
:100DC00000205E4908600F212020FFF7A2FD0120CE
:100DD0005C49C1F898020F2004F0B8FE10BD10B5B0
:100DE0005548FFF732FF002010BD10B5012002F07A
:100DF00003FF10B1012002F00AFF10BD10B5012061
:100E000004F0ECFE102002F0F7FE28B14A48FFF78C
:100E10001CFF102002F0FBFE10BD70B504460D460D
:100E2000164632462146284607F0D4F8002070BD09
:100E30001CB5464890ED000A8DED010A444890ED3E
:100E4000000A8DED000A0422424901A8FFF7E5FFE0
:100E5000042241496846FFF7E0FF032405E0E01E55
:100E60003C49085C3D490855641C062CF7DD072405
:100E700005E0E01F3849085C38490855641C0A2C15
:100E8000F7DD0B2406E0A4F10B003249085C33497E
:100E90000855641C0E2CF6DD0F2406E0A4F10F00AB
:100EA0002D49085C2D490855641C122CF6DD2B4891
:100EB000FFF773FF1CBD10B5294800782949087059
:100EC0002948007848700C22891C2848FFF7A5FFA4
:100ED0000C2224490E312648FFF79FFF0C2221499E
:100EE0001A310D48FFF799FF04221E492631214887
:100EF000FFF793FF04223FE06F0100200000000095
:100F0000000024400C0100200000000000408F4041
:100F10001001002014010020AC0300200801002073
:100F2000000000000000F03F680100200000000009
:100F30002C0000201F0000201400002098024342D3
:100F4000DB94000800004342D694000818010020FA
:100F50001C01002030000020340000203800002058
:100F60006000002050020020610000208803002063
:100F700094030020580000202D492E48FFF74DFF14
:100F800010BD18222C4B1A7016225A76012106E049
:100F90004A1E274B283B9A5C274B5A54491C0C2964
:100FA000F6DD0D2107E0A1F10D02214B1C3B9A5CFF
:100FB000214B5A54491C1829F5DD012007E0421E37
:100FC0001B4B103B9B5C1C4A19321354401C0C28D1
:100FD000F5DD174A2A3A1378174A82F826300E2090
:100FE00008E0A0F10E02124B1B1F9B5C124A193243
:100FF0001354401C1128F4DD0D4A2A3A53780E4A46
:1010000082F82B30132007E0A0F11302084B9B5C01
:10101000094A19321354401C1628F5DD704730B5C3
:10102000034693E8310081E83100002030BD000024
:101030007A0200205C000020200200202DE9F0410F
:101040002DED028B05460E4614463146284606F025
:10105000E5FF0746384607F0ABFDB0EE408AF0EEFC
:10106000608A51EC180B07F0E5F92060BDEC028BAB
:10107000BDE8F08110B51C480078012832D100206D
:101080001A49088018490870194A1A4801681A480C
:10109000FFF7D4FF194A174801680020FFF7CEFF79
:1010A00014480168002006F0B9FF15490860084699
:1010B0000068007813490870134A0E480168002040
:1010C000FFF7BCFF0B480168002006F0A7FF0C49A2
:1010D00008600846006800780C49087064210648DA
:1010E00006F091FF10BD00006500002062000020A6
:1010F000540000204C0000207E02002058000020F8
:1011000050000020600000205C00002061000020F2
:1011100010B588B0044601217F4801F0E8FF07229E
:1011200002217E4801F087FD072203217B4801F060
:1011300082FD0C20069002208DF81C008DF81D0009
:1011400000208DF81E0001208DF81F0006A97348AD
:1011500001F0E6FC26208DF8040003208DF8050040
:101160008DF8060001208DF8070001A801F0E7FBCB
:1011700002940020ADF80C00ADF80E00ADF81000A0
:10118000ADF814000C20ADF8120002A9644804F078
:10119000F4F9012240F22551614804F02CFB0121B1
:1011A0005F4804F072FA08B010BD10B540F2255146
:1011B0005B4804F05BFB002876D040F2255158488C
:1011C00004F08FFB564804F08FFAC4B2202CF3D001
:1011D00054480078082868D2DFE800F00412202E76
:1011E0003C4A5868242C03D101204E49087006E07F
:1011F00000204C4908704C4908804C49087089E02F
:10120000472C03D102204749087006E000204549D9
:10121000087045490880454908707BE0502C03D18F
:1012200003204049087006E000203E4908703E490E
:1012300008803E4908706DE0472C03D104203949ED
:10124000087006E0002037490870374908803749A0
:1012500008705FE0472C03D105203249087006E092
:10126000002030490870304908803049087051E04A
:10127000412C03D106202B49087006E000202949A3
:101280000870294908802949087043E02C2C03D1B3
:1012900007202449087006E00020224908702249EE
:1012A00008802249087035E035E032E01E480088A9
:1012B000C0F30D001E490C541B480088401C1A49FD
:1012C00008802C2C05D119480078401C174908705B
:1012D00005E016480078052801D1164804702A2C2C
:1012E00008D101201449087000200E4908700F49E8
:1012F000087002E007200B4908700B48008863283B
:1013000006DD002007490870074908800749087072
:1013100000E000BF00BF10BD01000200000002405D
:1013200000440040640000206200002066000020AD
:101330007E020020670000206500002010B50446F2
:1013400000BF0221414803F0E5F90028F9D0214609
:101350003E4803F096F900BF01213C4803F0DAF95A
:101360000028F9D0394803F089F9C0B210BD00B5A2
:1013700087B00121084601F071FE0121080301F048
:10138000C7FEE020059002208DF8180000208DF89F
:101390001A0003208DF8190001208DF81B0005A903
:1013A0002B4801F0BDFB05221146294801F043FC02
:1013B00005220621264801F03EFC0522072124488B
:1013C00001F039FC0121080301F0F7FE00214FF480
:1013D000805001F0F2FE0020ADF800004FF4827062
:1013E000ADF802000020ADF804000220ADF80600C0
:1013F0000120ADF808004002ADF80A003820ADF831
:101400000C000020ADF80E000720ADF81000694672
:101410000E4802F0BBFF01210C4803F0B1F8FF2099
:10142000FFF78CFF07B000BD10B5044607480088E1
:101430004FF6C771084005490880084600882043D8
:1014400008800121014803F09BF810BD00300140E5
:10145000000002401CB50121202001F0FFFD4FF4E7
:101460007070009000208DF8040003208DF80500B6
:1014700001208DF8070069462D4801F051FB1CBD85
:1014800000212C4A11702C49096861B12A49091DB3
:10149000096841B128490831096821B126490C3150
:1014A0000968002934D12449096819B90121234A5E
:1014B00011700EE02049091D096819B902211F4A5F
:1014C000117006E01C490831096811B903211B4A53
:1014D00011701A4909781A4A1278914210D11949A3
:1014E0000988491C174A118014490978164A117055
:1014F000E8B914490988012919DD0021117016E0A5
:101500000021104A11800D4909780D4A11700EE032
:101510000C490988022903DD08490978054A117038
:101520000021074A1170074A1180074A117070475D
:101530000014024069000020188242426C00002022
:101540006D0000206A00002068000020F8B5044605
:101550000D46164600F082FA002141EA4401C8B265
:1015600000F001FB00F0A9FA00B126E0284600F0E7
:10157000FAFA00F0A2FA00B11FE000F06FFA0120C1
:1015800004F0E4FA012101EB4401C8B200F0EBFAE7
:1015900000F093FA00B110E0002000F009FB8DF894
:1015A0000100012000F004FB8DF8000000F06DFA4E
:1015B000BDF8000030800120F8BD00F066FA002080
:1015C000FAE72DE9F04104460D4616463246294613
:1015D0002046FFF7BBFF0746FA480078FA49C87073
:1015E000FA4800780871FA4800784871F84800888D
:1015F000000A88713846BDE8F08170B504460D4692
:10160000164600F02BFA002141EA4401C8B200F06E
:10161000AAFA00F052FA00B10DE0284600F0A3FA51
:1016200000F04BFA00B106E0304600F09CFA00F002
:101630002CFA012070BD00F028FA0020FAE710B55E
:10164000FC2201216420FFF7D8FF0446E0B210BD60
:101650000EB50121022001F001FD40200090012083
:101660008DF8040000208DF8060002208DF805009A
:1016700001208DF807006946D64801F051FA802014
:10168000009001208DF804008DF8060002208DF8EE
:10169000050000208DF807006946CE4801F040FAA9
:1016A0000120CD490860CD49C1F89C02FFF7C7FF72
:1016B00002AA02216420FFF784FF0EBD70B5044624
:1016C0000D46164600F0CAF9002141EA4401C8B2AD
:1016D00000F049FA00F0F1F900B11DE0284600F0F1
:1016E00042FA00F0EAF900B116E000F0B7F9012083
:1016F00004F02CFA012101EB4401C8B200F033FAE6
:1017000000F0DBF900B107E0012000F051FA307081
:1017100000F0BBF9012070BD00F0B7F90020FAE736
:101720002DE9F04104460F4690461D46A8F1010000
:10173000C6B200F093F9002141EA4401C8B200F0BA
:1017400012FA00F0BAF900B127E0384600F00BFABF
:1017500000F0B3F900B120E000F080F9012004F0BE
:10176000F5F9012101EB4401C8B200F0FCF900F0E9
:10177000A4F900B111E005E0002000F019FAA85525
:10178000701EC6B2002EF7DC012000F011FA28709E
:1017900000F07BF90120BDE8F08100F076F900202F
:1017A000F9E72DE9F04104460D4616463246294632
:1017B0002046FFF783FF07463846BDE8F081F8B5BD
:1017C00004460D461646009600F048F9002141EA0D
:1017D0004401C8B200F0C7F900F06FF900B11AE097
:1017E000284600F0C0F900F068F900B113E09DF858
:1017F000010000F0B8F900F060F900B10BE09DF8CD
:10180000000000F0B0F900F058F900B103E000F07A
:101810003CF90120F8BD00F038F90020FAE72DE985
:10182000F04105460E4617469846781E44B200F031
:1018300015F9002141EA4501C8B200F094F900F021
:101840003CF900B118E0304600F08DF900F035F9B0
:1018500000B111E009E018F8040000F084F9601EFE
:1018600044B200F02AF900B106E0002CF3DA00F0EF
:101870000CF90120BDE8F08100F007F90020F9E73C
:101880002DE9F04105460E4617463A4631462846B0
:10189000FFF7B3FE04462046BDE8F0812DE9F04194
:1018A00004460D461646324629462046FFF787FF76
:1018B00007463846BDE8F08100EE900AF8EE600A6F
:1018C000DFED471A80EEA11ADFED460A61EE200A2D
:1018D000B0EE600A7047F0EE400A01EE100AB8EE72
:1018E000411ADFED411A71EE611A9FED3F2A81EE38
:1018F000821ADFED3E1A81EEA02A21EE021AB0EE26
:10190000410A704770B52DED068B0446B0EE408A53
:101910000D4600EE104AB8EE400ADFED350A60EEE3
:10192000200A00EE105AB8EE400A20EE800A10EEAF
:10193000101A084606F03AFD41EC1A0B9FED2D0BEC
:1019400053EC102B06F033FC41EC190B06F072FD42
:1019500000EE100ADFED290A20EE200ADFED280A4A
:1019600068EE200A80EE201AF0EE418AB0EE680A96
:10197000BDEC068B70BD70B5044622460221642082
:10198000FFF71FFE0546E088A0F548400238218891
:101990000844E080E0884FF480519FED1A0AFFF779
:1019A000B1FF84ED020AE0884FF6FF7190FBF1F081
:1019B00064214843207525B10122A11D124800F081
:1019C00075F970BD800000207000002082000020AA
:1019D0007C00002000040240988240420080404287
:1019E00000FF7F4700008C4200FEFF468FC2753D1E
:1019F0000742B2399A9999999999A93F00007A4476
:101A000000008045CDCC4C3D04C000081CB58020B2
:101A1000009001208DF8040002208DF805000120BF
:101A20008DF8060000208DF807006946754801F022
:101A300077F81CBD1CB58020009000208DF80400B4
:101A400002208DF8050001208DF8060000208DF899
:101A5000070069466B4801F063F81CBD10B5FFF73D
:101A6000D5FF0120684908606849C1F89802042040
:101A700004F06CF8002064490860042004F066F863
:101A800000206249C1F8980210BD10B5FFF7BEFFF3
:101A900000205D49091F08605C49C1F89C020420D0
:101AA00004F054F801205849091F08605749C1F84B
:101AB0009C02042004F04AF810BD10B50024012057
:101AC0005149086004F042F801205049C1F89802D9
:101AD00004F03CF8FFF7AEFF07E0601CC4B2FA2C3C
:101AE00003DDFFF7D2FF012010BD474880380068B2
:101AF0000028F2D14449091F086000BFF4E710B57F
:101B000000204149091F0860FFF780FF00203F497E
:101B1000C1F89C02022004F019F801203A49091F7B
:101B20000860022004F012F800203849C1F8980239
:101B300010BD10B500203449091F0860FFF766FF8B
:101B400001203249C1F89C02022003F0FFFF01206E
:101B50002D49091F0860022003F0F8FF00202B49DF
:101B6000C1F8980210BD70B50446FFF74FFF002082
:101B70002549091F0860002517E0E009224908608F
:101B80006006040E022003F0E1FF01201F49C1F8A6
:101B90009802022003F0DAFF00201B49091F0860A9
:101BA000022003F0D3FF681CC5B2082DE5DB70BD31
:101BB00070B505460024FFF73DFF002617E0002022
:101BC0001149091F0860022003F0C0FF01200F49DE
:101BD000C1F898026006040E0B488038006808B10E
:101BE000601CC4B2012003F0B1FF701CC6B2082E05
:101BF000E5DB15B9FFF783FF01E0FFF79AFF204609
:101C000070BD0000000402409C82404200804042BF
:101C100001464248814201D200207047404881423B
:101C200001D20820F9E73F48814201D21020F4E7B1
:101C30003D48814201D21820EFE73C48814201D261
:101C40002020EAE73A48814201D22820E5E73948D6
:101C5000814201D23020E0E73748814201D238206A
:101C6000DBE73648814201D24020D6E73448814242
:101C700001D24820D1E73348814201D25020CCE73D
:101C80005820CAE701460868704730B503460C463D
:101C90001546002207E01846FFF7F4FF44F822003B
:101CA0001B1D501C82B2AA42F5DB30BD2DE9F04766
:101CB00004460D4616460927042000FB0648B4F1E9
:101CC000006F02D304F0030008B1BDE8F08701F013
:101CD000E5FF312002F0E3FA002001F0C2FF2046C8
:101CE000FFF796FF8146022102F02CF80746092FE4
:101CF0000CD108E02046296802F03DF9092800D0FF
:101D000003E0241D2D1D4445F4D300BF012001F044
:101D1000A8FF01F0D0FF00BFD7E700000040000897
:101D20000080000800C00008000001080000020850
:101D300000000408000006080000080800000A0867
:101D400000000C0800000E0810B588B00446012100
:101D50000C2001F083F90121080501F0C8F90822DF
:101D60000C21814800F067FF082202217F4800F023
:101D700062FF4FF48050069002208DF81C00032073
:101D80008DF81D0000208DF81E008DF81F0006A99B
:101D9000754800F0C5FE0420069002208DF81C0056
:101DA00003208DF81D0000208DF81E008DF81F0007
:101DB00006A96E4800F0B4FE02940020ADF80C00B5
:101DC000ADF80E00ADF810000C20ADF812000020A8
:101DD000ADF8140002A9664803F0CFFB0121644866
:101DE00003F053FC012240F22551614803F003FD4A
:101DF00035208DF8040003208DF805008DF80600CD
:101E000001208DF8070001A800F099FD08B010BD71
:101E100010B540F22551564803F028FD002851D056
:101E200040F22551524803F05CFD514803F05CFC40
:101E3000C4B25048007820B101280ED002283FD10A
:101E400017E0242C03D101204A49087004E0002047
:101E5000484908704849088033E0242C03D1022007
:101E60004449087004E00020424908704249088053
:101E700027E041480088C0F30D0040490C543E481B
:101E80000088401C3C49088008460088C0F30D00CB
:101E90000C2808D101203A49087000203549087003
:101EA0003549088002E00220324908703248008833
:101EB000132804DD00202F4908702F49088000E016
:101EC00000BF00BF10BD10B52DED068B84B00024FF
:101ED0002B480078012843D1002027490880284951
:101EE000087000BF0FE02548005D264908552349CA
:101EF000201D085C24490855204904F10800085CAD
:101F000022490855641C042CEDDB14211B4806F003
:101F10007AF81E4890ED000A10EE101A084606F0F6
:101F200045FA41EC180B184890ED000A10EE101A13
:101F3000084606F03BFA41EC190B124890ED000AF6
:101F400010EE101A084606F031FA41EC1A0B8DED2E
:101F5000028B8DED009B53EC1A2B0DA006F018FEA2
:101F600004B0BDEC068B10BD00080240000C02401E
:101F700000500040920000209000002060030020EC
:101F80009800002084000020880000208C000020A1
:101F90006469733A25302E3466207961773A2530AA
:101FA0002E3466207265665F7961773A25302E346B
:101FB000660D0A001CB50121022001F04FF8012135
:101FC000082001F04BF802220821C04800F033FE3F
:101FD00002220921BD4800F02EFE02220D21BC483C
:101FE00000F029FE4FF48070009002208DF804006C
:101FF00003208DF8050000208DF8060002208DF8E2
:1020000007006946B14800F08BFD4FF40070009066
:102010006946AE4800F084FD4FF4005000906946D8
:10202000AB4800F07DFD1CBD08B54FF4E06000F04A
:1020300081FC1E208DF8000000208DF80100032097
:102040008DF8020001208DF80300684600F077FC4F
:1020500008BD00B587B00121042001F048F84CF21A
:102060004F30059040F24730ADF810000020ADF839
:102070001800ADF8120004A9964802F072FC08207E
:10208000ADF804000020ADF806000120ADF808000E
:102090000020ADF80A00ADF80C0001A98D4803F04E
:1020A00037F80C20ADF804000020ADF80600012040
:1020B000ADF808000020ADF80A00ADF80C0001A949
:1020C000844803F025F80420ADF8040001A98148F4
:1020D00003F01EF801217F4802F0CCFC0122082108
:1020E0007C4803F0DFF8012210217A4803F0DAF887
:1020F00001220421774803F0D5F807B000BD10B5E0
:10210000FFF758FFFFF790FFFFF7A3FF10BD10B5D3
:102110000421704803F0DDF8002831D06E480068D3
:1021200078B900216B4802F065FC0221694802F091
:10213000CEFE0121674802F09DFC0120664908603F
:102140001AE0644803F065F80446652C01D0642C5D
:1021500003D100206149087006E0C92C01D0CA2CC7
:1021600002D101205D49087000215A4802F0AFFEFB
:1021700000205949086000BF0421564803F0BAF80E
:102180000821544803F0A5F8002863D0544800689B
:1021900058B900214F4802F02DFC02214D4802F0B1
:1021A000B0FE01204E49086050E04A4803F034F880
:1021B0000446652C3DDBCA2C3BDC4A4804600068C1
:1021C000973800EE100AB8EEC00AF0EE000A20EED2
:1021D000200A454880ED000A4048007800B30020FE
:1021E00042490870404A92ED000ABDEEC00A10EE66
:1021F000101A002901DB0A4600E04A420A2A10DCD4
:102200003B4A92ED000ABDEEC00A10EE100A00280B
:1022100001DB024600E042420A2A02DC04F077FBBE
:1022200007E03348D0ED000A2F4890ED000A04F093
:102230002DF82C4801682FA006F0AAFC00212548A3
:1022400002F05FFE00202649086000BF08212148F7
:1022500003F050F810211F4803F03BF8A8B32B48B7
:10226000006878B900211B4802F0C4FB022119481C
:1022700002F061FE0121174802F0FCFB0120234916
:1022800008601EE0134802F0CAFF0446652C10DB0C
:10229000CA2C0EDC1E4804600068973800EE100A55
:1022A000B8EEC00AF0EE000A20EE200A104880EDD9
:1022B000000A0021074802F03EFE00201349086092
:1022C00000BF1021034803F015F810BD00040240C0
:1022D000000C024000080040B4000020CC000020A8
:1022E000B8000020A0000020C40000206F010020E2
:1022F000C800002049433146616C6C696E675661C5
:102300006C75653A25640D0A00000000BC000020D1
:10231000A800002070B505460C46302104F13D00B0
:1023200005F071FE256770BD1CB50446F84903C968
:10233000CDE900016946206FFEF762F91CBD1CB5AE
:102340000446F349083103C9CDE900016946206F0D
:10235000FEF756F91CBD1CB50446ED49103103C902
:10236000CDE900016946206FFEF74AF91CBD1CB596
:102370000446E749183103C9CDE900016946206FD9
:10238000FEF73EF91CBD2DE9F04F2DED048B85B015
:1023900004460120DF4908704120015D4020005DB6
:1023A00001EB002005B2284605F0E2FF41EC190BD5
:1023B0009FEDD90B53EC102B05F0F9FE41EC180BF7
:1023C00006F038F8206094ED000A10EE101A084666
:1023D00005F0ECFF41EC190B9FEDD10B53EC102BEA
:1023E00005F0E2FE41EC180B06F024F8CE498860B7
:1023F0004320015D4220005D01EB002006B2304623
:1024000005F0B6FF41EC190B9FEDC30B53EC102BFD
:1024100005F0CDFE41EC180B06F00CF8606094ED71
:10242000010AC14880ED010A4520015D4420005D9C
:1024300001EB002007B2384605F09AFF41EC190B7A
:102440009FEDB50B53EC102B05F0B1FE41EC180BD2
:1024500005F0F0FFA06094ED020AB34880ED000A99
:102460004720015D4620005D01EB00200FFA80F857
:10247000404605F07DFF41EC190B9FEDAC0B53EC92
:10248000102B05F006FF41EC180B05F0D3FFE060C0
:1024900094ED030AA74880ED000A4920015D482019
:1024A000005D01EB00200FFA80F9484605F060FF5F
:1024B00041EC190B9FED9D0B53EC102B05F0E9FE41
:1024C00041EC180B05F0B6FF206194ED040A994821
:1024D00080ED010A4B20015D4A20005D01EB0020E8
:1024E0000FFA80FA504605F043FF41EC190B9FEDBF
:1024F0008F0B53EC102B05F0CCFE41EC180B05F0C4
:1025000099FF606194ED050A8A4880ED020A4D202A
:10251000015D4C20005D01EB00200FFA80FB584666
:1025200005F026FF41EC190B9FED830B53EC102BAC
:1025300005F0AFFE41EC180B05F07CFFA06194EDB7
:10254000060A7F4880ED000A4F20015D4E20005DA5
:1025500001EB002000B20490049805F009FF41EC63
:10256000190B9FED750B53EC102B05F092FE41EC0F
:10257000180B05F05FFFE06194ED070A704880EDED
:10258000010A5120015D5020005D01EB002000B2E6
:102590000390039805F0ECFE41EC190B9FED660BE0
:1025A00053EC102B05F075FE41EC180B05F042FFC3
:1025B000206294ED080A624880ED020A5320015D12
:1025C0005220005D01EB002000B20290029805F05D
:1025D000CFFE41EC190B9FED5B0B53EC102B05F07C
:1025E00058FE41EC180B05F025FF606294ED090AD6
:1025F000564880ED000A5520015D5420005D01EB36
:10260000002000B20190019805F0B2FE41EC190BD8
:102610009FED4C0B53EC102B05F03BFE41EC180BDF
:1026200005F008FFA06294ED0A0A484880ED010A0F
:102630005720015D5620005D01EB002000B20090A4
:10264000009805F095FE41EC190B9FED3E0B53EC05
:10265000102B05F01EFE41EC180B05F0EBFEE062BE
:1026600094ED0B0A394880ED020A5820005D0106FE
:102670005920005D01EB00415A20005D01EB002173
:102680005B20005D0844206394F85D105C20005DD1
:1026900001EB0020606394F85E00010694F85F008F
:1026A00001EB004194F8600001EB002194F8610017
:1026B0000844A06394F8620084F83C0000201549A7
:1026C000087005B0BDEC048BBDE8F08F10B52DEDA2
:1026D000048B044600BF0F4800780128FBD094ED1E
:1026E000000A10EE101A084605F060FE41EC190BC6
:1026F0009FED0B0B53EC102B05F056FD41EC180B26
:1027000005F098FE00EE100ABDEC048B10BD000031
:10271000E0940008D20000209A9999999999B93FBC
:102720000000000000807640AC03002000000000A4
:102730000000D040880300206666666666664040FA
:1027400094030020CDCCCCCCCCD47440A00300208A
:1027500000BF1F4909780129FBD090ED010A70479D
:1027600000BF1B4909780129FBD090ED020A704790
:1027700000BF174909780129FBD090ED030A704783
:1027800000BF134909780129FBD090ED040A704776
:1027900000BF0F4909780129FBD090ED050A704769
:1027A00000BF0B4909780129FBD090ED060A70475C
:1027B00000BF074909780129FBD090ED070A70474F
:1027C00000BF034909780129FBD090ED080A704742
:1027D000D200002030B589B005460C4601212020EA
:1027E00000F096FC0121042000F038FC08220621AC
:1027F000474800F020FA08220721454800F01BFA5C
:10280000C020079002208DF820008DF821000020C4
:102810008DF8220001208DF8230007A93C4800F024
:102820007FF947208DF8080003208DF809008DF806
:102830000A0001208DF80B0002A800F080F8039533
:102840000020ADF81000ADF81200ADF81400ADF89E
:1028500018000C20ADF8160003A92E4802F08DFEDA
:10286000012240F224412B4802F0C5FF01212948F2
:1028700002F00BFF04202346264A121D4FF0206170
:102880000090254805F061FB01224021214802F01B
:10289000A9FF09B030BD10B540F224411D4802F037
:1028A000E5FF98B300211C4801F03AF801201B49CC
:1028B0000870184800881A4908801648001D0088CA
:1028C00008801849144801F0A4F8134801F04BF8A7
:1028D000C0F1640012490880084602881249134872
:1028E00005F078FB11483D38FFF74DFD01201049F8
:1028F000088064200849091D08600121064801F08C
:102900000FF840F22441034802F0EBFF10BD000035
:10291000000802400014014028640240D200002058
:10292000CE000020400F001058040020F9040020C1
:10293000D000002032490143324A1160704770B51F
:10294000002100230F22C4781CB32E4C246804F409
:10295000E064C4F5E064C4F30721C1F10404E3B208
:102960000A4144789C40E1B28478144021430C072A
:10297000210E254C05786155047804F01F050124CB
:10298000AC4005786D11AD0005F1E025C5F80041BA
:1029900009E0047804F01F050124AC401B4D0678C3
:1029A000761145F8264070BD194A0A400243154B7E
:1029B0001B1F1A60704739B1124A121D1268024378
:1029C000104B1B1D1A6006E00E4A121D126882434E
:1029D0000C4B1B1D1A607047042808D14FF0E021F2
:1029E000096941F004014FF0E022116107E04FF066
:1029F000E021096921F004014FF0E02211617047E4
:102A00000000FA050CED00E000E400E080E100E0E9
:102A100080FFFF1F10B504469848844208D1012169
:102A2000084600F086FB0021012000F082FB76E0E2
:102A30009348844208D10121022000F07AFB002152
:102A4000022000F076FB6AE08E48844208D1012122
:102A5000042000F06EFB0021042000F06AFB5EE021
:102A60008948844208D10121082000F062FB00213E
:102A7000082000F05EFB52E08448844208D1012126
:102A8000102000F056FB0021102000F052FB46E021
:102A90007F48844208D10121202000F04AFB002118
:102AA000202000F046FB3AE07A48844208D1012118
:102AB000402000F03EFB0021402000F03AFB2EE0D9
:102AC0007548844208D10121802000F032FB0021AA
:102AD000802000F02EFB22E07048844208D10121C2
:102AE000801500F026FB0021A01500F022FB16E067
:102AF0006B48844208D10121401500F01AFB0021E7
:102B0000601500F016FB0AE06648844207D10121F7
:102B1000001500F00EFB0021201500F00AFB10BD8F
:102B2000F0B50A4600210023002400BF3DE0012546
:102B300005FA01F3156805EA03049C4234D10568DF
:102B40004F000326BE40B543056015794E00B540E1
:102B50000668354305601579012D02D01579022DDF
:102B600016D185684F000326BE40B5438560557970
:102B70004E00B540866835438560456801268E4025
:102B8000B5434560456896798E40B6B23543456099
:102B9000C5684F000326BE40B543C560D5794E00D9
:102BA000B540C6683543C560491C1029BFD3F0BD88
:102BB0004FF6FF7101600021017141718171C17196
:102BC000704708B54FF480320092009A0A43009291
:102BD000009AC261C161009AC261C2690092C26971
:102BE000009208BD0246002013690B400BB1012082
:102BF00000E0002070470146086980B27047024635
:102C0000002053690B400BB1012000E00020704709
:102C10000146486980B2704701837047418370471D
:102C20000AB1018300E04183704741617047426906
:102C30004A4042617047F0B5002300244D07ED0E75
:102C400002FA05F3CE1000F1200555F826504E0784
:102C5000F70E0F26BE40B543CF1000F1200646F810
:102C60002750CE1000F1200555F8265045EA030400
:102C7000CE1000F1200545F82640F0BD00000240CE
:102C80000004024000080240000C02400010024014
:102C90000014024000180240001C024000200240C4
:102CA0000024024000280240F948006840F001007A
:102CB000F74908600020F64908310860F4480068C8
:102CC000F4490840F2490860F348091D0860F348D8
:102CD000EF4984310860F0481038091D0860EC485D
:102CE000006820F48020EA4908600020E8490C319F
:102CF0000860E7498C31086070470021E44A921C63
:102D0000117011460870704710B50146002200236B
:102D100000204A11012A02D1DD4C236808E0022A72
:102D200003D1DB4C7034236802E0D94C743423683F
:102D300001F01F02012494401C400CB1012000E06E
:102D4000002010BD38B5002000900024002500BFF1
:102D50003120FFF7D9FF05460098401C00900098ED
:102D6000B0F5A04F01D0002DF2D03120FFF7CCFFFD
:102D700008B1012400E00024204638BD01460020AF
:102D8000C34A106820F0F80040EAC10010607047A4
:102D9000C349086070470021BD4A7032117011703C
:102DA000012802D004280AD104E00121B84A703277
:102DB000117005E00521B64A7032117000E000BFC5
:102DC00000BF7047B7490860704770B5049C41EA7E
:102DD00082150126C6EB530645EA0645054345EA3A
:102DE0000465AB4E361D356070BDAD490866704751
:102DF000820142EA0172A64B84331A607047A849E7
:102E00008866704710B5830143EA016343EA0273A1
:102E10009F4C8834236010BDA14908677047A049C2
:102E2000C864704702460020994B0833186820F0A8
:102E3000EC6042EA01031843954B08331860704771
:102E400002460020924B0833186820F0784042EA8E
:102E5000010318438E4B0833186070470146002069
:102E60008B4A0832106820F0030008431060704756
:102E700087480830006800F00C00704701460020C9
:102E8000834A0832106820F0F00008431060704751
:102E9000014600207E4A0832106820F4E0500843C2
:102EA0001060704701460020794A0832106820F40B
:102EB000604040EAC10010607047F0B50021002278
:102EC0000024022500260223714F08373F6807F0CF
:102ED0000C0121B1042905D0082937D105E0724F32
:102EE000076036E0714F076033E0694F3F1D3F6870
:102EF000C7F38056664F3F1D3F6807F03F036EB132
:102F00006A4FB7FBF3F7DFF888C10CF1040CDCF86B
:102F100000C0CCF3881C07FB0CF40CE0624FB7FB3D
:102F2000F3F7DFF86CC10CF1040CDCF800C0CCF353
:102F3000881C07FB0CF4564F3F1D3F68C7F3014741
:102F40007F1C7D00B4FBF5F7076002E0564F076079
:102F500000BF00BF4E4F08373F6807F0F001090976
:102F6000534F7A5C0768D7404760494F08373F683E
:102F700007F4E051890A4E4F7A5C4768D740876072
:102F8000434F08373F6807F46041490B484F7A5C6C
:102F90004768D740C760F0BD002100F44072B2F529
:102FA000407F0AD13A4A0832116821F4F811414AA7
:102FB00002401143364A08321160354A70321268B5
:102FC000C0F30B031A43324B70331A607047354914
:102FD00044390860704733494039086070473649C2
:102FE0000860704701460020294A8C32106820F0A2
:102FF0001F004A1E1043264A8C321060704701465B
:103000000020234A8C32106820F4F8504A1E40EA0F
:1030100002201F4A8C3210607047014600201C4A73
:103020008C32106820F4401008431060704701464D
:103030000020174A8C32106820F4400008431060CA
:10304000704701460020124A8C32106820F440304C
:1030500008431060704719490860704739B10C4A3D
:103060003032126802430A4B30331A6006E0084AD5
:10307000303212688243064B30331A607047F9B120
:10308000034A343212680243014B34331A601CE0A5
:1030900000380240FFFFF6EA103000240030002024
:1030A00000004742800E47420024F40000127A00DC
:1030B000D3000020FFFCFF0F5C014742E0114742B4
:1030C0008F4A126882438E4B1A60704739B18C4A1E
:1030D000121D126802438A4B1B1D1A6006E0884AC3
:1030E000121D12688243864B1B1D1A60704739B14E
:1030F000834A0C3212680243814B0C331A6006E09B
:103100007F4A0C32126882437D4B0C331A60704741
:1031100039B17B4A103212680243794B10331A607E
:1031200006E0774A103212688243754B10331A60FA
:10313000704739B1724A243A12680243704B243BFB
:103140001A6006E06E4A243A126882436C4B243BB4
:103150001A60704739B16A4A203A12680243684BD4
:10316000203B1A6006E0664A203A12688243644BAC
:10317000203B1A60704739B1614A1C3A1268024319
:103180005F4B1C3B1A6006E05D4A1C3A12688243A2
:103190005B4B1C3B1A60704739B1594A143A1268AC
:1031A0000243574B143B1A6006E0554A143A126822
:1031B0008243534B143B1A60704739B1504A103A5E
:1031C000126802434E4B103B1A6006E04C4A103A1C
:1031D000126882434A4B103B1A60704739B1484A23
:1031E0001C3212680243464B1C331A6006E0444A04
:1031F0001C3212688243424B1C331A60704739B14B
:103200003F4A2032126802433D4B20331A6006E0E9
:103210003B4A203212688243394B20331A60704790
:1032200039B1374A243212680243354B24331A60CD
:1032300006E0334A243212688243314B24331A6049
:10324000704739B12E4A2C32126802432C4B2C3372
:103250001A6006E02A4A2C3212688243284B2C332B
:103260001A60704739B1264A303212680243244B43
:1032700030331A6006E0224A303212688243204B13
:1032800030331A607047012808D11D493C31096864
:1032900041F008011A4A3C32116007E018493C31FC
:1032A000096821F00801164A3C321160704739B1B3
:1032B000134A273A12780243114B273B1A7006E053
:1032C0000F4A273A127882430D4B273B1A707047FA
:1032D0000B484030006840F0807009494031086078
:1032E000704701460020064A283A12680A400AB18F
:1032F000012000E00020704701492639087070471E
:103300003438024010B501210802FFF756FF0021B2
:103310004FF48070FFF751FF10BD30B5024600201A
:1033200000235068F84C20400D790C6844EA0524CD
:10333000204350609068F54C2040D1E903542C4361
:103340008D682C434D7944EA450420439060D06A4F
:1033500020F470000C7D641EE4B2234340EA035065
:10336000D06230BD00210160017141718160C16096
:1033700001610121017570470021E54A1168E54AA4
:103380001140D0E900231A4383681A43C3681A43E3
:103390001143E14AC2F80413704700210160416003
:1033A0008160C160704721B1826842F00102826091
:1033B00003E0826822F00102826070470A46002121
:1033C0004168D64B194011434160704741628262A7
:1033D00070470A460021416821F01F0111434160F6
:1033E000704738B1CA49096841F40001CA4AC2F8B5
:1033F000041306E0C649096821F40001C64AC2F870
:103400000413704738B1C249096841F48001C24AC7
:10341000C2F8041306E0BE49096821F48001BE4ADF
:10342000C2F804137047F0B504460D460020002191
:10343000092D11DDE068A5F10A0606EB460707260F
:1034400006FA07F18843A5F10A0606EB460603FAD9
:1034500006F10843E0600CE0206905EB450707260C
:1034600006FA07F1884305EB450603FA06F108431F
:103470002061072A0FDA606B561E06EB86071F26AF
:1034800006FA07F18843561E06EB860605FA06F192
:103490000843606322E00D2A0FDA206BD61F06EB8B
:1034A00086071F2606FA07F18843D61F06EB860615
:1034B00005FA06F10843206310E0E06AA2F10D0668
:1034C00006EB86071F2606FA07F18843A2F10D06D0
:1034D00006EB860605FA06F10843E062F0BD816856
:1034E00041F0804181607047014600208A6802F007
:1034F00080420AB1012000E00020704721B18268BB
:1035000042F48062826003E0826822F4806282601A
:10351000704721B1826842F00202826003E0826853
:1035200022F002028260704710B50A460021002393
:10353000416821F46041531E41EA4331416010BDAE
:1035400021B1426842F40062426003E0426822F422
:103550000062426070470146C86C80B270476C4898
:10356000001D0068704721B1826842F48072826059
:1035700003E0826822F480728260704721B1826821
:1035800042F40072826003E0826822F4007282607A
:10359000704738B15E49096841F400515E4AC2F88B
:1035A000041306E05A49096821F400515A4AC2F846
:1035B00004137047F0B5044615460020002200268B
:1035C000092911DDE068A1F10A0707EB470C07277D
:1035D00007FA0CF29043A1F10A0707EB470703FA39
:1035E00007F21043E0600CE0206901EB410C072773
:1035F00007FA0CF2904301EB410703FA07F210437C
:103600002061A06BC0F30156EF1C06F1010CA7EB83
:103610000C0707EB870C1F2707FA0CF29043EF1CEF
:1036200006F1010CA7EB0C0707EB870701FA07F27D
:103630001043A063F0BD10B50A4600210023816B42
:1036400021F44011531E41EA0351816310BD08B5B6
:10365000002300930090009B0B440093009B1A6092
:1036600008BD0A460021816821F470211143816060
:1036700070470A460021816821F44011114381609E
:103680007047816841F480018160704701460020E5
:103690008A6802F480020AB1012000E0002070472D
:1036A00021B1426842F48062426003E0426822F441
:1036B00080624260704721B1426842F480524260A9
:1036C00003E0426822F480524260704708B5024627
:1036D00000200090009201F12800009B1844009007
:1036E0000098006880B208BD10B50B460021D9B221
:1036F000012404FA01F11AB144680C43446002E069
:1037000044688C43446010BDFFFEFFFCFDF7FFC022
:1037100004230140E030FCFF00200140FFFD3FFF9B
:103720000246002013680B400BB1012000E000208E
:103730007047CA430260704770B5024600200023FC
:1037400000240B12556801268E4005EA0604156810
:103750001D4015B10CB1012000E0002070BD002219
:103760000A12D34303607047016821F00101016030
:103770000021016041608160C160016121214161DE
:10378000DB49884204D13D21D94A103A91608CE04E
:10379000D7491831884205D14FF47461D44A103AA0
:1037A000916082E0D2493031884205D14FF47411E2
:1037B000CF4A103A916078E0CD494831884205D12E
:1037C0004FF07461CA4A103A91606EE0C8496031A6
:1037D000884204D1C749C64A103AD16065E0C4495D
:1037E0007831884204D1C449C14A103AD1605CE0C2
:1037F000BF499031884204D1C049BD4A103AD160D6
:1038000053E0BB49A831884205D14FF03D51B84A39
:10381000103AD16049E0BA49884204D13D21B84A02
:10382000083A116041E0B6491831884205D14FF499
:103830007461B34A083A116037E0B14930318842C7
:1038400005D14FF47411AE4A083A11602DE0AC492D
:103850004831884205D14FF07461A94A083A116095
:1038600023E0A7496031884204D1A249A44A121F2B
:1038700011601AE0A2497831884204D19E49A04AD9
:10388000121F116011E09E499031884204D19B497A
:103890009B4A121F116008E09949A831884204D15F
:1038A0004FF03D51964A121F1160704710B500222B
:1038B0000268944B1A40CC680B6823434C6923433D
:1038C0008C692343CC6923430C6A23434C6A23430A
:1038D0008C6A23434C6B23438C6B23431A43026053
:1038E000426922F00702D1E90B3423431A434261B3
:1038F0000B6943604B6883608B68C36010BD002117
:10390000016041608160C160016141618161C161AB
:10391000016241628162C1620163416381637047F8
:1039200021B1026842F00102026003E0026822F065
:1039300001020260704721B1026842F40042026055
:1039400003E0026822F400420260704721B102687D
:1039500042F02002026003E0026822F020020260CE
:103960007047416070470146486880B2704722B195
:10397000036843F40023036003E0036823F4002397
:1039800003600161704721B1026842F48022026045
:1039900003E0026822F48022026070470AB10161EC
:1039A00000E0C1607047014600200A6802F400226E
:1039B0000AB1012000E000207047014600200A689B
:1039C00002F001020AB1012000E000207047014628
:1039D00000204A6902F03800704730B503460A46B5
:1039E00000200024464DAB4202D24149103901E08B
:1039F0004349103902F000550DB14C6800E00C68E5
:103A0000414D2C4004EA02050DB1012000E00020E8
:103A100030BD02463A4B9A4202D23548103801E096
:103A20003748103801F000531BB1374B0B40C360CF
:103A300002E0354B0B408360704710B501F0800306
:103A40004BB122B1436943F08003436103E0436912
:103A500023F08003436180290BD02AB1036801F071
:103A60001E042343036004E0036801F01E04A34323
:103A7000036010BD70B50246002000240025204ED2
:103A8000B24202D21A4B103B01E01D4B103B1F4EBD
:103A90000E4036B11E2606EAD124166806EA040551
:103AA00002E0566906F0800501F000560EB15C6830
:103AB00000E01C68144E344004EA010616B10DB152
:103AC000012000E0002070BD02460D4B9A4202D258
:103AD0000748103801E00A48103801F000531BB1C4
:103AE000094B0B40C36002E0074B0B4083607047FB
:103AF000106002403D000020400F002000003D20EB
:103B0000106402403F801CF07D0F7D0F3C0F3C0F86
:103B1000002041490860091D0860091D0860091D51
:103B200008603E483C4914310860704700213A491A
:103B30008279002A3AD00A46126803689A430B46F3
:103B40001A600A1D126803689A430B1D1A600279F5
:103B500011440A6803681A430A602F4A083212683F
:103B600003689A432C4B08331A601A1D12680368C5
:103B70009A43294B0C331A604279102A0ED11A1F2E
:103B8000126803681A43244B08331A601A1D12681E
:103B900003681A43204B0C331A600DE01E4942792A
:103BA00011440A6803681A430A6005E00279114467
:103BB0000A6803689A430A60704700210160017136
:103BC0000C2141710021817170471349103109683E
:103BD0000143114A103211607047014600200E4A1D
:103BE000143212680A400AB1012000E00020704738
:103BF000094914310860704701460020064A143212
:103C000012680A400AB1012000E000207047024912
:103C10001431086070470000003C0140FFFF7F0046
:103C2000FE4A1070704730B1FC49096841F4807158
:103C3000FA4A116005E0F949096821F48071F74AF0
:103C40001160704730B1F549096841F40071F34AD9
:103C5000116005E0F149096821F40071EF4A116033
:103C6000704730B1ED49096841F48061EB4A116059
:103C700005E0EA49096821F48061E84A116070476B
:103C8000E648006840F40060E44908607047E34893
:103C9000006840F48050E14908607047DF48103008
:103CA000006800F0004028B1DD48DC49091D0860CB
:103CB000DC4808607047D9481030006840F0004088
:103CC000D6491031086070470920D4490C31096881
:103CD00001F48031B1F5803F01D1012020E0CF49CE
:103CE0000C31096801F0100109B1062018E0CB4938
:103CF0000C31096801F4807109B1022010E0C74954
:103D00000C31096801F0EF0109B1072008E0C3494F
:103D10000C31096801F0020109B1082000E0092016
:103D2000704708B509200090FFF7CEFF009002E031
:103D3000FFF7CAFF00909DF800000128F8D09DF819
:103D4000000008BD70B504460A460026092502B9E0
:103D500009E0012A01D1160205E0022A01D116026A
:103D600001E04FF44076FFF7DCFF0546092D2DD129
:103D7000AA481030006820F44070A849103108604B
:103D800008460068304308600846006820F0F800E4
:103D900008600846006844F0020108439F4910315A
:103DA00008600846006840F480300860FFF7B9FFFB
:103DB00005469A481030006820F0020097491031FB
:103DC00008600846006820F0F8000860284670BDCA
:103DD00030B5024600250924FFF7A3FF044602B9C7
:103DE00009E0012A01D1150205E0022A01D11502DC
:103DF00001E04FF44075092C20D18848103000684C
:103E000020F4407085491031086008460068284356
:103E100008600846006840F0040008600846006832
:103E200040F480300860FFF77CFF04467B48103088
:103E3000006820F00400794910310860204630BD48
:103E400030B5024600250924FFF76BFF044602B98E
:103E500009E0012A01D1150205E0022A01D115026B
:103E600001E04FF44075092C20D16C4810300068F7
:103E700020F4407069491031086008460068284302
:103E800008600846006840F00400086008460068C2
:103E900040F480300860FFF744FF04465F4810306C
:103EA000006820F004005D4910310860204630BDF4
:103EB00030B5024600250924FFF733FF044602B956
:103EC00009E0012A01D1150205E0022A01D11502FB
:103ED00001E04FF44075092C20D1504810300068A3
:103EE00020F440704D4910310860084600682843AE
:103EF00008600846006840F4004008600846006812
:103F000040F480300860FFF70CFF0446434810304F
:103F1000006820F40040414910310860204630BD5F
:103F200070B5064614461D460922FFF7FAFE024602
:103F3000092A1ED139481030006820F440703749F2
:103F4000103108600846006840F440700860084678
:103F5000006840F00100086034607560FFF7E1FE22
:103F600002462E481030006820F001002B49103125
:103F70000860104670BD30B502460C460925FFF7B3
:103F8000D0FE0546092D1DD124481030006820F4CC
:103F900040702249103108600846006840F4007003
:103FA00008600846006840F0010008601460FFF7F0
:103FB000B8FE054619481030006820F00100174986
:103FC00010310860284630BD30B502460C46092540
:103FD000FFF7A7FE0546092D1DD1104810300068D7
:103FE00020F440700D49103108600846006840F424
:103FF000807008600846006840F001000860148086
:10400000FFF78FFE054605481030006820F00100DC
:10401000024910310860284630BD0000003C0240D3
:1040200023016745AB89EFCD30B502460C46092523
:10403000FFF777FE0546092D17D19B48006820F44D
:1040400040709949086008460068086008460068A2
:1040500040F0010008601470FFF763FE05469248C7
:10406000006820F0010090490860284630BD8E4865
:10407000001D006800F0010028B18C488A49083909
:1040800008608B48086070478748001D006840F052
:1040900001008549091D0860704730B502460C468D
:1040A0000925FFF73EFE0546092D10D13CB17E489B
:1040B000801D008890437C49891D088007E07A486C
:1040C000801D008891B208437749891D088030BD62
:1040D00030B502460C460925FFF723FE0546092D9B
:1040E00010D13CB170480A30008890436E490A31C3
:1040F000088007E06C480A30008891B208436A499A
:104100000A31088030BDFF21674AD21D127802F0C3
:104110007F0140EA0102644BDB1D1A70704730B525
:1041200002460C460925FFF7FCFD0546092D10D176
:1041300044B15D48801D008891B208435A49891DE9
:10414000088006E05848801D008890435649891D24
:10415000088030BD30B502460C460925FFF7E1FD69
:104160000546092D10D144B14F480A30008891B25C
:1041700008434D490A31088006E04B480A30008860
:10418000904349490A31088030BD10B502460924E0
:10419000FFF7C7FD0446092C02D14348401D0270B9
:1041A00010BDF0B504460D46FF260927FFF7B9FDFF
:1041B0000746092F0BD13C48001D007800F00F0680
:1041C00045EA0600104320433749091D0870F0BD39
:1041D0003549091D097821F01001334A121D11706B
:1041E000114609780143117070472F49091D09785C
:1041F00021F00C012C4A121D11701146097801435F
:104200001170704700B509222748001D007840F062
:1042100002002549091D0870FFF783FD024610467C
:1042200000BD2148001D0068C0F3471070471E48BC
:10423000801D008870471C480A30008870471A4863
:10424000801D0088704718480A3000887047002099
:104250001549491D0978AA2901D0012000E0002054
:1042600070471148001D007800F00C00704729B11C
:104270000D4A126802430C4B1A6004E00A4A1268A5
:104280008243094B1A60704701460020064A121FFC
:1042900012680A400AB1012000E00020704702497C
:1042A000091F086070470000103C02403B2A1908B3
:1042B0007F6E5D4C0E49086070470D49486070473D
:1042C0000B49886070474AF6AA2009490860704780
:1042D0004CF6CC4006490860704701460020044A6D
:1042E000D2680A400AB1012000E0002070470000B7
:1042F0000030004010B50446FB48844208D101213B
:104300008014FEF75AFF0021A014FEF756FF3CE090
:10431000F648844208D101210014FEF73DFF002138
:104320002014FEF739FF30E0F148844208D1012122
:10433000C013FEF731FF0021E013FEF72DFF24E04C
:10434000EC48844208D101214014FEF736FF0021D9
:104350006014FEF732FF18E0E748844209D10121DA
:104360000805FEF72AFF00214FF48010FEF725FF15
:104370000BE0E248844208D101214805FEF71DFF09
:1043800000214FF40010FEF718FF10BD10B50022F9
:10439000028802F441520B884C8823438C882343C3
:1043A000CC8823430C8923434C8923438C892343A2
:1043B000CC8923431A430280838B4FF2FF7423403E
:1043C00083830B8A038210BD2DE9F04F0025022361
:1043D00000244FF001090022002600279446904651
:1043E000B0F81CA04FF2400B0AEA0B0AA0F81CA080
:1043F0004FF0020AA0F820A0858BD1F808A0BAF1EE
:10440000020F01D100BF82E0B1F804A0BAF1000FA1
:1044100002D14FF0010901E04FF00209DFF8E0A2FC
:10442000DAF800A00AF4000ABAF1000F09D0DFF8A8
:10443000D0A2DAF800A02AF4000ADFF8C4B2CBF860
:1044400000A0DFF8BCA20AF17C0ADAF800A0CAF3E7
:10445000881CDFF8ACA20AF17C0ADAF800A0CAF3E3
:104460000278DFF89CA2AAF1040ADAF800A00AF0A8
:104470003F07DFF88CA2AAF1040ADAF800A00AF4D8
:10448000800ABAF5800F08D1DFF878A2BAFBF7FAF4
:104490000AFB0CFABAFBF8F607E0DFF86CA2BAFBED
:1044A000F7FA0AFB0CFABAFBF8F6B1F806A0BAF56F
:1044B000007F0ED14FEA162A0AEB8A0A4FEA4A0A0F
:1044C000D1F808B0BAFBFBFA0AF1050A1FFA8AF222
:1044D0000FE04FEA491AB6FBFAFA0AEB8A0A4FEAEA
:1044E0004A0AD1F808B0BAFBFBFA0AF1050A1FFA2A
:1044F0008AF24FF00A0AB2FBFAF202F00104A2EBD0
:10450000040ACAF34F034FF6FF7A0AEA0424022B87
:1045100001DBFF2B01DD02230024B1F806A04AEAEB
:10452000040A4AEA030AA0F820A0B1F804A0B1F8EE
:104530000CB04AEA0B0AB1F802B04AEA0B0AB1F829
:1045400000B04AEA0B0A4AF4006A4AEA0505858384
:10455000BDE8F08F0021018041808180C180018110
:1045600041818181C1810721018270470021018041
:1045700041808180C180022181600021818170475A
:1045800021B1028842F04002028004E002884FF626
:10459000BF731A400280704721B1828B42F480625F
:1045A000828304E0828B4FF6FF331A408283704788
:1045B00002884FF2FF731A40028002880A43028089
:1045C0007047B1F5804F04D1028842F480420280E6
:1045D00004E002884BF6FF731A40028070474FF6E2
:1045E000FF62914204D0028842F48072028004E0AB
:1045F00002884FF6FF631A400280704721B182881B
:1046000042F00402828004E082884FF6FB731A4075
:104610008280704721B1828842F01002828004E0DB
:1046200082884FF6EF731A408280704730B50022BF
:104630000023848B4FF240052C40848302240484A1
:10464000828B0C88B4F5007F01D00C8814B94FF42C
:10465000807308E00C88B4F5407F03D00C88B4F573
:10466000807F00D100238C888D892C434D882C437A
:104670001C4344F400642243828330BD0146888990
:1046800070478181704721B1028842F40052028054
:1046900004E002884DF6FF731A40028070470188DB
:1046A00041F480510180704702460020012901D069
:1046B000108B00E0908A70470146088A70471AB153
:1046C00083880B43838002E083888B438380704719
:1046D00030B5002400230C110125A540ABB2AAB1CE
:1046E00085881D43858014E000300140003800407B
:1046F000003C0040003401400050014000540140A3
:104700000838024000127A000024F40085889D4396
:10471000858030BD0246002013890B400BB101207B
:1047200000E000207047CA4302817047F0B502469E
:10473000002000240023002501F00F070126BE40C1
:10474000B4B20B1101269E40B3B2968806EA030567
:104750001689264016B10DB1012000E00020F0BD01
:1047600010B5002201F00F040123A3409AB2D343F5
:10477000038110BD10B501218803FEF71EFD002145
:104780004FF48040FEF719FD10BD1C4908607047CA
:104790001B490862704730B500228B071C0F0F239E
:1047A00003FA04F2154B08338C1053F8243093436A
:1047B000124C08348D1044F8253023468C1053F8E1
:1047C00024308C07240F00FA04F423430B4C0834E4
:1047D0008D1044F8253030BD0949DC310860704740
:1047E000084908607047002004492031096801F435
:1047F000807109B1012000E00020704700380140BD
:10480000000027420004274210B50446FE488442B7
:1048100008D101210846FEF7D0FC00210120FEF757
:10482000CCFC9DE0B4F1804F08D101210846FEF791
:10483000B3FC00210120FEF7AFFC91E0F348844275
:1048400008D101210220FEF7A7FC00210220FEF77B
:10485000A3FC85E0EE48844208D101210420FEF744
:104860009BFC00210420FEF797FC79E0E948844294
:1048700008D101210820FEF78FFC00210820FEF757
:104880008BFC6DE0E448844208D101211020FEF742
:1048900083FC00211020FEF77FFC61E0DF488442AA
:1048A00008D101212020FEF777FC00212020FEF70F
:1048B00073FC55E0DA48844208D101210220FEF75A
:1048C0007CFC00210220FEF778FC49E0D5488442B8
:1048D00009D101210804FEF770FC00214FF480305B
:1048E000FEF76BFC3CE0D048844209D1012148042A
:1048F000FEF763FC00214FF40030FEF75EFC2FE072
:10490000CA48844209D101218804FEF756FC0021DF
:104910004FF48020FEF751FC22E0C548844208D1C4
:1049200001214020FEF738FC00214020FEF734FC36
:1049300016E0C048844208D101218020FEF72CFCFB
:1049400000218020FEF728FC0AE0BB48844207D102
:1049500001218015FEF720FC0021A015FEF71CFCAC
:1049600010BD00220288A84B98420ED0AC4B984252
:104970000BD0B0F1804F08D0A44B984205D0A44B87
:10498000984202D0A34B984204D14FF68F731A403D
:104990004B881A43A04B984207D0A04B984204D0B2
:1049A0004FF6FF431A400B891A4302804B68C362DB
:1049B0000B880385944B984202D0994B984201D1C1
:1049C0008B7A03860123838270474FF0FF31416069
:1049D00000210180018141808172704701858282BE
:1049E00070470A46002101884FF68F731940114322
:1049F0000180704741627047C16270470146486A52
:104A000070470146088D704721B1028842F00202CA
:104A1000028004E002884FF6FD731A40028070475E
:104A200021B1028842F00402028004E002884FF6BD
:104A3000FB731A400280704721B1028842F0800265
:104A4000028004E002884FF67F731A4002807047AC
:104A500002884FF6F7731A40028002880A430280E8
:104A6000704702884FF6FF431A40028002880A43CB
:104A70000280704721B1028842F00102028004E006
:104A800002884FF6FE731A400280704770B500240A
:104A900000220023058C4FF6FE7635400584028CFB
:104AA0008388048B4FF68F752C40B51E2C400D88E3
:104AB0002C43751E2A408D892A434D882A43524D26
:104AC000A84202D0564DA84213D14FF6F7752A409E
:104AD000CD892A434FF6FB752A408D882A434FF62D
:104AE000FF652B404FF6FF552B400D8A2B434D8A17
:104AF0002B43838004838D684563028470BD70B549
:104B0000002400220023058C4FF6EF763540058403
:104B1000028C8388048B48F6FF752C404FF6FF45C6
:104B20002C400D884FF6FF7606EA05252C434FF6FC
:104B3000DF752A408D8906EA05152A434D8806EA65
:104B400005152A43304DA84202D0354DA8421DD14B
:104B50004FF67F752A40CD894FF6FF7606EA051598
:104B60002A434FF6BF752A408D8806EA05152A4369
:104B70004FF6FF352B404FF2FF752B400D8A06EAAA
:104B800085052B434D8A06EA85052B4383800483E4
:104B90008D688563028470BD70B5002400220023F7
:104BA000058C4FF6FF6635400584028C8388848B24
:104BB0004FF68F752C404FF6FC752C400D882C431A
:104BC0004FF6FF552A408D894FF6FF7606EA0525F8
:104BD0002A434D8806EA05252A430B4DA84202D0F8
:104BE0000F4DA84238D14FF2FF752A40CD894FF6BC
:104BF000FF7606EA05252A434FF6FF352A408D88C1
:104C000006EA05252A4319E000000140000400409F
:104C100000080040000C004000100040001400405C
:104C200000040140004001400044014000480140B0
:104C300000180040001C0040002000404EF6FF75A8
:104C40002B404DF6FF752B400D8A06EA05152B43C8
:104C50004D8A06EA05152B43838084838D68C563DE
:104C6000028470BD70B5002200230024058C4EF62E
:104C7000FF7635400584038C8488828B48F6FF7567
:104C80002A404FF6FF452A400D884FF6FF7606EA88
:104C900005252A434DF6FF752B408D8906EA05351B
:104CA0002B434D8806EA05352B43FE4DA84202D022
:104CB000FD4DA84208D14BF6FF752C400D8A4FF6EA
:104CC000FF7606EA85152C43848082838D6805640F
:104CD000038470BD002101804180818081608181D9
:104CE000C18101824182704770B5034600200024D3
:104CF0001846183001258D40ACB21D8CA5431D848B
:104D000009B108290AD100EB610005684FF68F76DA
:104D1000354005600568154305600FE00D1FC5F3BC
:104D20004E052844056848F6FF763540056005685D
:104D30004FF6FF7606EA02263543056070BD4163F3
:104D4000704781637047C1637047016470470A46CA
:104D50000021018B4FF68F73194011430183704777
:104D60000A460021018B48F6FF7319404FF6FF7386
:104D700003EA02231943018370470A460021818B0D
:104D80004FF68F7319401143818370470A46002103
:104D9000818B48F6FF7319404FF6FF7303EA022335
:104DA0001943818370470A460021018B4FF6F77340
:104DB00019401143018370470A460021018B4FF2CD
:104DC000FF7319404FF6FF7303EA0223194301836F
:104DD00070470A460021818B4FF6F7731940114343
:104DE000818370470A460021818B4FF2FF7319407F
:104DF0004FF6FF7303EA02231943818370470A4683
:104E00000021018B4FF6FB7319401143018370475A
:104E10000A460021018B4FF6FF3319404FF6FF730E
:104E200003EA02231943018370470A460021818B5C
:104E30004FF6FB7319401143818370470A460021E6
:104E4000818B4FF6FF3319404FF6FF7303EA0223BD
:104E50001943818370470A460021018B4FF67F7307
:104E600019401143018370470A460021018BC1F3A9
:104E70000E014FF6FF7303EA0223194301837047C3
:104E80000A460021818B4FF67F73194011438183BD
:104E900070470A460021818BC1F30E014FF6FF7364
:104EA00003EA02231943818370470A460021018CDB
:104EB0004FF6FD7319401143018470470A460021E3
:104EC000018C4FF6F77319401143018470470A466D
:104ED0000021018C4FF6DF7319404FF6FF7303EA90
:104EE00002131943018470470A460021018C4FF6D2
:104EF0007F7319404FF6FF7303EA021319430184CD
:104F000070470A460021018C4FF6FF5319404FF6B7
:104F1000FF7303EA02231943018470470A46002104
:104F2000018C4FF2FF7319404FF6FF7303EA02231F
:104F30001943018470470A460021018C4DF6FF7326
:104F400019404FF6FF7303EA023319430184704797
:104F500030B5002301248C40A3B2048C9C4304840C
:104F6000048C02FA01F5ADB22C43048430BD30B597
:104F7000002304248C40A3B2048C9C430484048C3E
:104F800002FA01F5ADB22C43048430BD828B4FF29E
:104F9000FF331A408283828B4FF6FF7303EA0123AB
:104FA0001A4382837047F0B50C4615460021002253
:104FB0000026078C4EF6FF7C07EA0C070784818BDE
:104FC000028C4FF6FF7707EA043640F6FF47394078
:104FD0004FF6FF7707EA052739434FF6FF7707EAD1
:104FE0000337394345F6FF773A4046F480573A4352
:104FF00081830284F0BD828B4FF6F3731A40828363
:10500000828B0A4382837047F0B50C461546002117
:1050100000220026078C4FF6FF6C07EA0C07078476
:10502000818B028C4FF6FF7707EA04264FF60C7748
:1050300039404FF6FF7707EA03172F4339434FF202
:10504000FF573A4046F480773A4381830284F0BDAB
:10505000028B4FF2FF331A400283028B4FF6FF732D
:1050600003EA01231A4302837047F0B50C46154644
:10507000002100220026078C4FF6EF7C07EA0C0780
:105080000784018B028C4FF6FF7707EA041640F67F
:10509000FF4739404FF6FF7707EA033739434FF6AA
:1050A000FF7703E0000001400004014007EA052704
:1050B00039434FF65F773A4046F010073A43018391
:1050C0000284F0BD028B4FF6F3731A400283028B09
:1050D0000A4302837047F0B50C46154600210022B2
:1050E000068C4FF6FE773E400684018B028C4FF60D
:1050F0000C7631407E1C06EA03162E4331434FF6F0
:10510000F576324044F00106324301830284F0BD5B
:1051100070B505460C46208850B92389A28861885D
:105120002846FFF7D8FFE1882846FFF7CBFF25E0A8
:10513000208804280AD12389A28861882846FFF79D
:1051400094FFE1882846FFF783FF17E020880828AE
:105150000AD12389A28861882846FFF755FFE18894
:105160002846FFF748FF09E02389A288618828467E
:10517000FFF719FFE1882846FFF708FF70BD0021FF
:1051800001804180012181800021C180018170471F
:105190002DE9F04105460C4600260127608808B934
:1051A000022600E00026A088012801D1022700E0A5
:1051B00001272088A0B92389A28861882846FFF7A3
:1051C0008AFFE1882846FFF77DFF23893A4631466A
:1051D0002846FFF74AFFE1882846FFF739FF13E02A
:1051E0002389A28861882846FFF73FFFE188284687
:1051F000FFF72EFF23893A4631462846FFF76BFF1B
:10520000E1882846FFF75EFFBDE8F0810146486B64
:1052100070470146886B70470146C86B704701466E
:10522000086C70470A884B881A438B881A43CB88CE
:105230001A430B891A434B891A438B891A43A0F8E6
:10524000442070470021018041808180C18001811C
:1052500041818181704731B1B0F8442042F400426D
:10526000A0F8442005E0B0F84420C2F30E02A0F8F4
:105270004420704721B1828842F00402828004E019
:1052800082884FF6FB731A408280704721B1828872
:1052900042F00102828004E082884FF6FE731A40D9
:1052A000828070471AB183890B43838102E083892E
:1052B0008B43838170478182704702460020138AA6
:1052C0000B400BB1012000E000207047CA4302826E
:1052D000704730B50246002000230024158A05EAF5
:1052E0000103958905EA010413B10CB1012000E026
:1052F000002030BDCA430282704741EA0203A0F891
:10530000483070471AB183890B43838102E0838957
:105310008B438381704721B1828842F008028280EA
:1053200004E082884FF6F7731A4082807047018943
:105330004FF6F8721140018170470A460021018939
:105340004FF68F73194011430181704730B5044601
:105350000D4629462046FFF7F0FF208940F0070060
:10536000208130BD2DE9F04104460D4616461F460A
:10537000602D06D13B46012231462046FFF775FEDF
:1053800005E03B46012231462046FFF7A4FE2946B0
:105390002046FFF7D2FF208940F007002081BDE8BA
:1053A000F08130B50C4600210189C9B24FF6FF7576
:1053B00005EA0325154325432943018130BD2DE925
:1053C000F04105460E4617469846002443463A46A5
:1053D00031462846FFF7E5FF2C894FF6F870044068
:1053E00044F007044FF68F70044044F070042C81A1
:1053F000BDE8F081F0B504460D4616461F463B4613
:10540000324629462046FFF7CCFF208940F48040F1
:105410002081F0BD82884FF68F731A408280828887
:105420000A438280704702894FF6F8731A4002815E
:1054300002890A430281704702894FF67F731A403E
:10544000028102890A4302817047F0B50C46154675
:105450001E460021002200230189028B038C4FF697
:10546000F877394021434FF6FC473A4040F20117A4
:105470003A434FF6DD773B404FF6FF7707EA0617D2
:105480002F433B43018102830384F0BD21B1828815
:1054900042F08002828004E082884FF67F731A40D7
:1054A00082807047A0F850107047000010B5044685
:1054B000FA48844208D101211020FDF77EFE002128
:1054C0001020FDF77AFE57E0F548844209D101210A
:1054D0004804FDF761FE00214FF40030FDF75CFE4B
:1054E0004AE0F048844209D101218804FDF754FEC6
:1054F00000214FF48020FDF74FFE3DE0EA48844252
:1055000009D10121C804FDF747FE00214FF4002016
:10551000FDF742FE30E0E548844209D1012108054B
:10552000FDF73AFE00214FF48010FDF735FE23E031
:10553000DF48844208D101212020FDF73EFE0021F2
:105540002020FDF73AFE17E0DA48844209D1012114
:105550008807FDF721FE00214FF08040FDF71CFE7B
:105560000AE0D548844207D101214005FDF714FE29
:1055700000216005FDF710FE10BD2DE9FF4705462F
:105580000E460024A14600BFA046B08900B100BF6E
:105590002C8A24F44054F08804432C82AC8941F2D4
:1055A0000C608443B08831890843718908430443FF
:1055B000AC81AC8A24F44074B0890443AC82684660
:1055C000FDF77BFCB548854202D0B948854202D13F
:1055D000DDF80C9001E0DDF80890A88900F40040A7
:1055E00040B109EBC90000EB091031684900B0FB7C
:1055F000F1F707E009EBC90000EB091031688900F9
:10560000B0FBF1F76420B7FBF0F00401200964213E
:1056100001FB1078A88900F4004040B1322000EB73
:10562000C800B0FBF1F000F00700044308E03220AE
:1056300000EB08106421B0FBF1F000F00F00044310
:105640002C81BDE8FF874FF4165101600021818055
:10565000C18001810C21418100218181704710B5F9
:1056600002460020108A20F470600B884C88234387
:105670008C882343CC8823431843108210BD00211B
:10568000018041808180C180704721B1828942F4CC
:105690000052828104E082894DF6FF731A408281B4
:1056A0007047028B02F47F420283028B0A4302831B
:1056B000704721B1828942F40042828103E08289ED
:1056C000C2F30E028281704721B1828A42F40062E5
:1056D000828204E0828A4FF2FF731A40828270470E
:1056E000C1F308028280704701468888C0F3080031
:1056F0007047028A4FF6F0731A400282028A0A4308
:105700000282704721B1828942F00202828104E064
:1057100082894FF6FD731A408281704782894FF269
:10572000FF731A40828182890A4382817047028A0C
:105730004FF6DF731A400282028A0A4302827047E0
:1057400021B1028A42F48042028204E0028A4BF6CE
:10575000FF731A4002827047818941F00101818103
:10576000704721B1828A42F00802828204E0828A74
:105770004FF6F7731A4082827047028BD2B20283CF
:10578000028B42EA01220283704721B1828A42F0F1
:105790002002828204E0828A4FF6DF731A408282FE
:1057A000704721B1828A42F01002828204E0828A2C
:1057B0004FF6EF731A4082827047828A4FF6FB736E
:1057C0001A408282828A0A438282704721B1828A89
:1057D00042F00202828204E0828A4FF6FD731A4090
:1057E000828270471AB1838A0B43838202E0838AE4
:1057F0008B4383827047F0B50346002400260025C2
:10580000002040F66A17B94200D100BF1846C1F324
:10581000421401F01F06012707FA06F5012C01D1F9
:105820000C3004E0022C01D1103000E014301AB129
:1058300007682F43076002E00768AF430760F0BDC9
:1058400002460020B1F5007F00D100BF13880B4055
:105850000BB1012000E00020704701F40072B2F5A6
:10586000007F00D100BFCA430280704770B5024676
:10587000002400230025002040F66A16B14200D122
:1058800000BFC1F3421501F01F03012606FA03F31E
:10589000012D13D19689334017E00000001001401C
:1058A0000044004000480040004C004000500040D0
:1058B0000014014000780040007C0040022D02D11D
:1058C000168A334001E0968A33400C12012606FA0C
:1058D00004F41688344013B10CB1012000E000201C
:1058E00070BD10B50022002340F66A14A14200D119
:1058F00000BF0A1201249440A3B2DC43048010BD0F
:105900000A460021DBE0D30B002B75D0102971D2A1
:10591000DFE801F0080F161D242B323940464C52A7
:10592000585E646A038823F4004303F50043038050
:1059300060E0038823F4804303F58043038059E04B
:10594000038823F4005303F50053038052E00388D7
:1059500023F4805303F5805303804BE0038823F442
:10596000006303F50063038044E0038823F480634D
:1059700003F5806303803DE0038823F4007303F59F
:105980000073038036E0038823F4807303F580738B
:1059900003802FE0038823F080038033038029E015
:1059A000038823F040034033038023E0038823F07F
:1059B0002003203303801DE0038823F010031033FD
:1059C000038017E0038823F008030833038011E005
:1059D000038823F004031B1D03800BE0038823F0DE
:1059E00002039B1C038005E0038823F001035B1C7A
:1059F000038000BF5DE0FFE7102959D2DFE801F026
:105A0000080D12171C21262B30353A3F44494E53BE
:105A1000038823F4004303804AE0038823F480438F
:105A2000038045E0038823F40053038040E00388AB
:105A300023F4805303803BE0038823F40063038056
:105A400036E0038823F48063038031E0038823F485
:105A5000007303802CE0038823F48073038027E025
:105A6000038823F08003038022E0038823F04003AF
:105A700003801DE0038823F02003038018E00388DF
:105A800023F01003038013E0038823F0080303804E
:105A90000EE0038823F00403038009E0038823F069
:105AA0000203038004E0038823F00103038000BFA6
:105AB00000BF4FF6FF7303EA42024B1CD9B2102914
:105AC000FFF621AF7047F0B51C46002600250123E4
:105AD000C1F11007974202DAC1F11007FAB20E467F
